S01300004553425F50726F6A6563742E7372656301
S11300000C942A000C943C000C943C000C943C008E
S11300100C943C000C943C000C943C000C943C006C
S11300200C943C000C943C000C943C000C943C005C
S11300300C943C000C943C000C943C000C943C004C
S11300400C943C000C943C000C943C000C943C003C
S11300500C943C0011241FBECFE5D8E0DEBFCDBF19
S113006020E0A0E6B0E001C01D92A038B207E1F79D
S11300700E943E000C94EE010C94000060E081E0CC
S11300800E94AC0060E082E00E94AC0061E083E08A
S11300900E94AC0060E084E00E94AC0080E10E9419
S11300A0730080E10E949600882329F061E081E0DA
S11300B00E94DB0004C060E081E00E94DB0081E07C
S11300C00E940901882351F082E00E94F3008FEF1F
S11300D099EF0197F1F700C00000E3CF60E082E000
S11300E00E94DB00DECFCF93DF931F92CDB7DEB744
S11300F01982883030F099819F5F998388508830C5
S1130100D0F7E981F0E0EE0FFF1FEE0FFF1FEE0FB7
S1130110FF1FE05AFF4FE80FF11D108280E690E0C8
S11301200E941F010F90DF91CF910895CF93DF9329
S11301301F92CDB7DEB7682F1982883030F09981CD
S11301409F5F998368506830D0F789810E94B80115
S11301500F90DF91CF9108950F931F93CF93DF9367
S11301601F92CDB7DEB7182F062F1982883030F0D2
S113017089818F5F898318501830D0F7E981F0E0C6
S1130180EE0FFF1FEE0FFF1FEE0FFF1FE05AFF4F92
S1130190E10FF11D81E0808380E690E00E941F0161
S11301A08981402F612F0E946B010F90DF91CF91C5
S11301B01F910F910895CF93DF931F92CDB7DEB7B0
S11301C0462F1982883030F099819F5F9983885037
S11301D08830D0F79981682F892F0E946B010F9086
S11301E0DF91CF910895CF93DF931F92CDB7DEB700
S11301F0682F1982883030F099819F5F9983685005
S11302006830D0F789810E94D6010F90DF91CF9199
S11302100895CF93DF931F92CDB7DEB7682F19826D
S1130220883030F099819F5F998368506830D0F7A7
S113023089810E94B8010F90DF91CF910895BF92F8
S1130240CF92DF92EF92FF920F931F93CF93DF939E
S11302508C0160E070E0BB24B394EB2CF12CC12C36
S1130260D12C22C04C91413021F49081982B908361
S113027011C0EF0190812E2D3F2D442311F02C2D20
S11302803D2D052E02C0220F331F0A94E2F720955C
S11302902923288318963397EE32F10519F76F5FF7
S11302A07F4F6830710569F0562F8B2D062E01C0E3
S11302B0880F0A94EAF7D801A60FB71FEAE3F0E023
S11302C0D1CFDF91CF911F910F91FF90EF90DF90ED
S11302D0CF90BF900895CF93DF931F92CDB7DEB731
S11302E08983898190E09C01220F331F820F931F21
S11302F0EAE3F0E0E81BF90B808190E0062E02C0EF
S1130300959587950A94E2F780FF2EC04423B1F0B7
S1130310898190E09C01220F331F820F931FEBE32E
S1130320F0E0E81BF90B208181E090E002C0880F27
S1130330991F6A95E2F7822B808316C0898190E029
S11303409C01220F331F820F931FEBE3F0E0E81BA5
S1130350F90B208181E090E002C0880F991F6A9513
S1130360E2F78095822380830F90DF91CF910895E7
S1130370CF93DF931F92CDB7DEB78983898190E055
S11303809C01220F331F820F931FE9E3F0E0E81B67
S1130390F90B208181E090E002C0880F991F6A95D3
S11303A0E2F782230F90DF91CF9108951F93CF93AB
S11303B0DF931F92CDB7DEB78983162F89810E9400
S11303C0B801998141E0811140E0612F892F0E9499
S11303D06B010F90DF91CF911F910895F894FFCF97
S9030000FC
