S012000044494F5F4472697665722E737265636B
S11300000C942A000C9434000C9434000C943400A6
S11300100C9434000C9434000C9434000C9434008C
S11300200C9434000C9434000C9434000C9434007C
S11300300C9434000C9434000C9434000C9434006C
S11300400C9434000C9434000C9434000C9434005C
S11300500C94340011241FBECFE5D8E0DEBFCDBF21
S11300600E94CE000C9480010C9400000F931F9307
S1130070CF93DF93EC0140E050E001E010E0742FF7
S11300809801042E01C0220F0A94EAF7622F6095AA
S1130090DE01A40FB51FEAE3F0E09C91808199236F
S11300A049F0292F072E01C0220F0A94EAF7282BC2
S11300B0208302C08623808318963397EE32F1059D
S11300C061F74F5F5F4F48305105C9F6DF91CF911B
S11300D01F910F910895CF93DF931F92CDB7DEB791
S11300E089838981EAE3F0E093E0899FE019F109CB
S11300F01124808190E0062E02C0959587950A947C
S1130100E2F780FF16C08981EBE3F0E093E0899F7A
S1130110E019F1091124208181E090E001C0880FE9
S11301206A95EAF7442311F0822B02C0809582235A
S113013080830F90DF91CF910895CF93DF931F9227
S1130140CDB7DEB789838981E9E3F0E093E0899F45
S1130150E019F1091124208181E090E001C0880FA9
S11301606A95EAF782230F90DF91CF9108951F9348
S1130170CF93DF931F92CDB7DEB78983162F898182
S11301800E949D00998141E0811140E0612F892FF7
S11301900F90DF91CF911F910C946B00CF93DF935D
S11301A0CDB7DEB7A0970FB6F894DEBF0FBECDBFB4
S11301B02FEF8FE891E0215080409040E1F700C09C
S11301C000008E010F5F1F4F6E0121E2C20ED11C91
S11301D05801480177247394E12CF12C8FE39FE1BB
S11301E00197F1F700C00000F501EE0DFF1D7082CC
S11301F0C8010E9436009FEFE91AF90A28E0E216C6
S1130200F10461F788E0A80EB11CAC14BD0421F719
S1130210E12CF12C8FE39FE10197F1F700C000007E
S113022041E06F2D8E2D0E946B00F39498E0F9123B
S1130230F1CFE39424E0E212ECCFE12CF12C8FE334
S11302409FE10197F1F700C0000040E06F2D8E2D73
S11302500E946B00F39498E0F912F1CFE39424E048
S1130260E212ECCFE12CF12C8FE39FE10197F1F73F
S113027000C00000F801EE0DFF1D1082C4010E94B1
S113028036009FEFE91AF90A28E0E216F10461F753
S1130290085F1F4FC016D10629F78FEF9FE821E0B2
S11302A0815090402040E1F700C0000081E08A8343
S11302B08B83C4010E94360060E082E00E949D00AE
S11302C0882311F041E001C040E061E080E00E9439
S11302D06B0061E080E00E949D00882359F062E099
S11302E080E00E94B7008FEF99EF0197F1F700C00B
S11302F00000E2CF40E062E080E00E946B00DCCFCF
S1070300F894FFCF9B
S9030000FC
